:020000040800F2
:10000000304D002011030008431F00083B1F00086B
:100010003F1F0008FF1C0008072400080000000024
:10002000000000000000000000000000790200084D
:10003000031D000800000000BD020008C5210008E3
:100040002B0300082B0300082B0300082B030008D8
:100050002B0300082B0300082B0300082B030008C8
:100060002B0300082B030008051D00082B030008C4
:100070002B0300082B0300082B0300082B030008A8
:100080002B0300082B0300082B0300082B03000898
:100090002B0300082B0300082B0300082B03000888
:1000A0002B0300082B0300082B0300082B03000878
:1000B0002B0300082B0300082B0300082B03000868
:1000C0002B0300082B0300082B0300082B03000858
:1000D0002B0300082B030008592200082B030008FB
:1000E0002B0300082B0300082B0300082B03000838
:1000F0002B0300082B0300082B0300082B03000828
:100100002B0300082B0300082B0300082B03000817
:100110002B0300082B0300082B0300082B03000807
:100120002B0300082B0300082B0300082B030008F7
:1001300000F002F800F090F80AA090E8000C824469
:100140008344AAF10107DA4501D100F085F8AFF246
:10015000090EBAE80F0013F0010F18BFFB1A43F0A5
:1001600001031847003F0000203F0000103A24BF61
:1001700078C878C1FAD8520724BF30C830C144BF0C
:1001800004680C607047000000230024002500264E
:10019000103A28BF78C1FBD8520728BF30C148BFEA
:1001A0000B6070476E2900F0EB81702900F02D8301
:1001B000662903F0D586652903F0D286672903F006
:1001C000CF86612903F0CE8603681B0A28BF41F061
:1001D0008001692900F09881642900F095817529D2
:1001E00000F092816F2900F0BA82782900F0F9823C
:1001F000E92900F05582E42900F05282F52900F047
:100200004F82EF2900F0B782F82900F0F8820368E6
:10021000DB0928BF41F08001632901F02D8073299B
:1002200001F03280E32901F03D80F32901F04280A2
:10023000002070471FB501F08FF804000020002156
:1002400003F078FE401C60600020002103F05CFE9B
:10025000E0601FBD10B510BD01F050F81146FFF76A
:10026000E9FF02F09BF901F02DF903B4FFF7F2FF6B
:1002700003BC01F075F90000224B19680868B0E86A
:10028000F00F80F30988BFF36F8F4FF0000080F309
:1002900011884EF00D0E70470000000006480068FF
:1002A000006880F3088862B661B6BFF34F8FBFF372
:1002B0006F8F00DF00BF00BF08ED00E0EFF30980A3
:1002C000BFF36F8F0F4B1A6820E9F00F106008B56D
:1002D0004FF0BF0080F31188BFF34F8FBFF36F8FD4
:1002E00003F0D4F84FF0000080F31188BDE8084017
:1002F00019680868B0E8F00F80F30988BFF36F8FC2
:10030000704700BF2C000020EFF30580704700000D
:100310000948804709480047FEE7FEE7FEE7FEE799
:10032000FEE7FEE7FEE7FEE7FEE7FEE704480549D5
:10033000054A064B70470000F9210008310100080A
:1003400030470020304D0020304900203049002047
:100350001CB50C46064B7B4469460090204600F0D5
:1003600028F904460020694600F036F920461CBDF5
:100370007F02000010B5431C02E010F8011B71B1B0
:100380008107FAD14FF0013202C88C1A8C4314EA6B
:10039000C211F9D0C01A0A0603D0C01E10BDC01A7F
:1003A00010BD0A0401D0801E10BD0902FCD0401E01
:1003B00010BD032A40F2308010F0030C00F01580CD
:1003C00011F8013BBCF1020F624498BF11F801CB58
:1003D00000F8013B38BF11F8013BA2F1040298BFBD
:1003E00000F801CB38BF00F8013B11F0030300F027
:1003F000DB82083AC0F0088051F8043B083A51F813
:1004000004CBA0E80810F5E7121D5CBF51F8043BCF
:1004100040F8043BAFF30080D20724BF11F8013B42
:1004200011F801CB48BF11F8012B24BF00F8013BA4
:1004300000F801CB48BF00F8012B704770477047A8
:10044000704770B5044685690068C10601D530263D
:1004500000E02026C00707D070BDD4E90121304656
:100460009047206A401C20626D1EF6D570BD70B5A5
:10047000044685690078C00707D170BDD4E9012121
:1004800020209047206A401C20626D1EF6D570BD6A
:1004900009684A0501D540B27047C905FCD500B2CC
:1004A000704709684A0501D5C0B27047C905FCD537
:1004B00080B2704770B50C460546012A05D02878F1
:1004C000800600D5EA69002302E0012305E05B1CF9
:1004D000934202D2E05C0028F9D1A869E618C01A5C
:1004E000A861286A184428622846FFF7AAFF04E09A
:1004F000D5E9012114F8010B9047B442F8D32846FE
:10050000FFF7B5FF70BD00002DE9F041064600245D
:1005100010687529314616A510D0FFF7B9FF0028DD
:1005200002DA404213A507E031688A0701D512A517
:1005300002E0490704D511A5012401E0FFF7B1FF4E
:1005400000210A2206F1240709E0B0FBF2FCB0FB0F
:10055000F2F302FB1C00303078541846491C002886
:10056000F3D123462A463046BDE8F04100F093BA65
:10057000000000002D0000002B0000002000000003
:1005800011680268006A530501D508700AE0D305B6
:1005900001D5088006E0130603D5C217C1E90002A1
:1005A00000E008600120704701694A1C0261087878
:1005B000704700B58FB0CDE90131002105910549A3
:1005C0007944CDE903101146684600F029F90FB0CF
:1005D00000BD0000E5FFFFFF0A6802F8010B0A609A
:1005E000704700002DE9FF5F15468A460446DFF894
:1005F000AC80F8440027D8E900103E46CDE9001051
:1006000010E03AF816106A4602A800F057FE411CA6
:1006100007D02178890603D5E269391891420DD8AF
:100620000744761C2078800602D5E069B84205DDD3
:10063000AE42E6DB3AF816000028E2D1A069C01B02
:10064000A0612046FFF7FDFED8E90010CDE90010BB
:10065000002017E03AF818106A4602A800F02EFEB3
:10066000B0F1FF3F81460BD000250DF1080B05E0EE
:10067000D4E901211BF8050090476D1C4D45F7D3C7
:1006800008F10100B0428046E4DB206A3844206271
:100690002046FFF7ECFEBDE8FF9F00007239000026
:1006A0002DE9F0418046D21D22F007020025D2E953
:1006B0000002F52915A614D0011E72F1000106DA18
:1006C0000023D0EB030063EB020211A608E0D8F888
:1006D00000108B0701D50FA602E0490701D50EA631
:1006E00001251146002408F1240704E000F08EF9EA
:1006F00030323A55641C50EA0102F7D12B4632469B
:1007000021464046BDE8F04100F0C5B900000000B8
:100710002D0000002B0000002000000030B400215C
:1007200000F1240408E002F00705D208303542EA5F
:100730004372DB086554491C52EA0305F3D104688F
:10074000002310A2250707D5A40600D421B1C4694F
:1007500001230DA2641EC46130BC00F09CB910B529
:10076000044621461068FFF79CFE02462046BDE87D
:1007700010400023D2E7D21D22F00701D1E9002367
:10078000CCE700000000000030000000F0B40D468F
:100790000188090502D5214C7C4402E01F4C7C44B1
:1007A0000E34002100F1240608E002F00F071209C0
:1007B000E75D42EA03721B097754491C52EA0307BA
:1007C000F3D102780023120704D5702D06D009B1A9
:1007D000022311342246F0BC00F05DB9012310342D
:1007E000F8E770B504460D4621461068FFF759FE3C
:1007F000024629462046BDE870400023C6E7D21DC8
:1008000022F00703D3E90023C0E70368126843F02E
:10081000200303600823C3610023B7E7D437000037
:100820002DE9F05F894604464FF0000ADFF874B105
:10083000FB44C0F820A02046E1688847002874D017
:10084000252806D0D4E901219047206A401C206267
:10085000F1E700265F462046E168884720280546E4
:1008600007DB312D05D2781910F8200C08B10643AA
:10087000F1E7B00701D526F00406C4F81CA0002754
:10088000C4F818A02A2D09D0284601F0D2FD38B3AB
:1008900004EB8708303DC8F8185019E059F8041BDC
:1008A000204604EB87029161E1688847012F0546E5
:1008B00018D1E069002820DA26F020061DE0D8F8DB
:1008C000180000EB800005EB40003038C8F8180035
:1008D0002046E1688847054601F0ABFD0028EED1CF
:1008E000012F0AD02E2D08D12046E16888477F1CB1
:1008F0000546022F46F02006C4DBA069002803DA73
:10090000404246F00106A061F00701D026F0100633
:100910006C2D0BD0682D09D04C2D39D06A2D35D0D7
:10092000742D35D07A2D33D016E038E0E1682F46AB
:1009300020468847B842054609D16C2F26D04FF48F
:100940008060E168064320468847054604E06C2F36
:100950001AD04FF4807006430DB3A5F14100192859
:1009600002D8203546F400664A46294620462660CD
:100970004E46FFF717FC80B101280BD0F61D26F07C
:10098000070000F1080956E74020E4E78020D8E797
:100990000020D6E706F104094DE7284652E7206A11
:1009A000BDE8F09F6437000010B5203AC0F00B801E
:1009B000B1E81850203AA0E81850B1E81850A0E863
:1009C0001850BFF4F5AF5FEA027C24BFB1E81850BD
:1009D000A0E8185044BF18C918C0BDE810405FEA2D
:1009E000827C24BF51F8043B40F8043B08BF7047A9
:1009F000D20728BF31F8023B48BF11F8012B28BFAE
:100A000020F8023B48BF00F8012B704730B5B0F129
:100A10000A024FEA900E71F100034EEA817EB0EBBC
:100A20000E0061EB91014FEA101E4EEA017E10EBC1
:100A30000E0041EB11114FEA102E4EEA016E10EB41
:100A40000E0041EB11214FEA104E4EEA014E10EB21
:100A50000E0041EB1141401841F100014FEAD00076
:100A600040EA41704FEAD10110EB80054FEA810462
:100A700044EA907444EB01046D1944EB0404521BE6
:100A8000A3414FF0000348BF0A3200D530BD401CDF
:100A900041F1000130BD2DE9F0470D4699469246DF
:100AA000044600F124080168880604D5E06921F0B5
:100AB0001001216000E00120A84201DD471B00E099
:100AC0000027A1697A1902EB0900081AA0612078B1
:100AD000C00602D42046FFF7B4FC002608E0D4E9A3
:100AE00001211AF806009047206A401C761C2062FB
:100AF0004E45F4DB2078C0060AD52046FFF7A1FC5E
:100B000006E0D4E9012130209047206A401C206291
:100B1000381EA7F10107F4DC07E0D4E9012118F839
:100B200005009047206A401C2062281EA5F101059F
:100B3000F3DC2046FFF79BFC2078000602D502205C
:100B4000BDE8F0870120FBE770472DE9FF4F0C4619
:100B50001E464FF0FF378BB0D2E90001DDF8608010
:100B60000A908A46C1F30A5505B93D460021084658
:100B70004FF00000BAF1000F00F4400005DA00EB7E
:100B800080004FF4400101EA50004FEA9059B9F15A
:100B9000010F00DDB9460A9850EA4A000ED044F62B
:100BA0001050A5F2FF3545432F14B8F1000F1ED0A9
:100BB0007542291E1EDDC9F100021CE0B8F1010FCB
:100BC0004FF0000001D0302103E0F24305E0215452
:100BD000401CB042FBDB30460022002121540B991F
:100BE000C1F80880C1E900200FB0BDE8F08FBD1B3F
:100BF0006D1CDEE74A4600DA694206A800F0F0FB09
:100C000006AB93E8070003AB83E8070050460A9958
:100C100000F0ADFC8DE80700A0F500501F380090F3
:100C20000398002D0ADD42F21F014A4608440023C2
:100C300003A90390684600F016FF09E0A0F50050F4
:100C40004A461F38002303A90390684600F020FF9E
:100C50008DE807000004000C03D04FF0FF3041087E
:100C600000E01046B8F1000F03D0002200921546B4
:100C70001EE0751E05D4FFF7C9FE303262556D1EA9
:100C8000F9D5B3460122084302D000227F1C04E0BC
:100C90002078302801D100227F1E002A099784D0B5
:100CA0001DE0112D07DAFFF7B1FE303262556D1CE1
:100CB00050EA0102F5D1084302D00098C8B10EE015
:100CC0000021681E05E0235C625C63542254401ED0
:100CD000491C8142F7DBAB46A81B401E099000204F
:100CE00004F80B000B98099AC0F80880C0E9002BA3
:100CF0007AE711264FF0000857E72DE9F04F8846B4
:100D00000446D21D22F0070191B0D1E90001CDE9DE
:100D10000A0101F07AFB02460B98C00F01D02D208A
:100D200007E02068810701D52B2002E0202101EA9D
:100D3000C000032A099001D0072A05DB034641467B
:100D4000204600F00DFB0BE12078800601D5E0691C
:100D500000E00620B8F1650F814606D0B8F1660FB5
:100D600018D0B8F1670F70D131E00020B9F1110F40
:100D7000009001DB112301E009F101030AAA01A996
:100D80000CA8FFF7E2FEDDE90C70002609F1010571
:100D9000834647E001204B4600904FF000470AAAE7
:100DA00001A90CA8FFF7D1FEDDE90DB00C995D4655
:100DB000002610B909F101000D18B9EB050003D4A4
:100DC000C0F1FF3609F10105A5EB09002BE0B9F1EF
:100DD000010F01DA4FF001090020B9F1110F009065
:100DE000484601DD112300E003460AAA01A90CA828
:100DF000FFF7ABFEDDE90C704D46002683462078F8
:100E000000070AD4AB4500DA5D4601A8012D04DDD8
:100E1000411911F8011C302907D04F4502DA17F1AA
:100E2000040F04DA012082460FE06D1EEEE7002F6A
:100E300002DCED1B3E4403E0781CA84200DD7D1C73
:100E4000B81B00F1010A4FF000472078000703D4D7
:100E5000AA4501DB4FF0FF3A0021B7F1004F0DF139
:100E600043088DF8431024D002202B23002F01DAF1
:100E70007F422D230A21021EA0F1010000DC5FB198
:100E800097FBF1FC97FBF1F201FB1C7C17460CF180
:100E9000300C08F801CDEEE7A8F1010003702188BD
:100EA000090501D5452100E06521A0F1010800F800
:100EB000011C09980FA9A1EB0807FF1D00B1012033
:100EC000411901EBEA70A1693844081A401EA0617B
:100ED0002078C00602D42046FFF7B3FA099828B15B
:100EE000D4E901219047206A401C20622078C00686
:100EF00022D52046FFF7A5FA1EE0002E04DBB345FD
:100F000002DD01A8805D00E03020D4E90121904796
:100F1000206A401C2062761CAAF101005FEA000AE8
:100F20000AD100F019FAC0680168405CD4E90121D7
:100F30009047206A401C2062281EA5F10105DCDCD8
:100F400007E0D4E9012118F8010B9047206A401C02
:100F50002062381EA7F10107F3DC2046FFF787FA6D
:100F6000032011B041E600002DE9F04F04460D4684
:100F7000D21D22F0070089B0D0E9009748463946D3
:100F800001F043FA0246F80F01D02D2307E0206854
:100F9000810701D52B2302E0202101EAC0038DF84F
:100FA00020300BB1012000E00020032A824601D04E
:100FB000072A04DB2946204600F0D2F93FE12078D9
:100FC000800601D40D2500E0E569C7F30A560D2D12
:100FD00049DA00214FEA175B08464FF00000002F66
:100FE00000F4400007DA00EB80004FF4400100EB12
:100FF000D07001EA60008115012901DD4FF0FF3159
:1010000000224FEA850CBCF1180F06D31346ACF151
:1010100018004FF08052C24003E04FF4801323FACF
:101020000CF30CF10C0CBCF1200F04D3ACF1200C30
:1010300009FA0CF001E007FA0CF000294FF0004823
:1010400001DD18B90FE00ED140450CD319EB0209B0
:101050005F4121B9404502D19F4329EA0209BBEB18
:10106000175F00D0761C2088000502D57B487844A5
:1010700002E07A487844193808AA302302F80A3086
:10108000037C0AF10101002E0AF1020A53546A4658
:1010900002DC4FF0300101E04FF031014FF0010868
:1010A0008DF8001002D0A6F2FF3603E059EA47019E
:1010B00000D06B4E002D02DC2178090704D54FF0DB
:1010C00002082E218DF80110C44600210BE0C7F361
:1010D00003433F01C35C491C6D1E02F8083005291B
:1010E00008F1010801DA002DF1DC00210CE000EB31
:1010F0001973491C1B786D1E082902F808304FEA45
:10110000091908F1010801DA002DF0DC21688B06CD
:1011100002D516E0A8F10108E04505DD02EB080361
:1011200013F8013C302BF5D0B8F1000F09DD02EBCC
:10113000080313F8013C2E2B03D1090701D4A8F1B1
:101140000108002D05DD3E2102F808106D1E08F192
:101150000108407C002E02F8080008F1010804DABA
:101160002D20764202F8080002E02B2002F8080049
:101170000A214FF47A70864208F101080BDB96FBD6
:10118000F0F3303302F8083096FBF0F308F1010871
:1011900000FB136601E0642E0CDB642096FBF0F389
:1011A000303302F8083096FBF0F308F1010800FB39
:1011B000136601E00A2E06DB96FBF1F0303002F8F0
:1011C000080008F1010896FBF1F001FB10603030D7
:1011D00002F80800A16908F1010808EB050202EB1A
:1011E0000A00081AA0612078C00602D42046FFF742
:1011F00028F9216A08AE01EB0A00206204E0D4E974
:10120000012116F8010B9047BAF1010AF7D22078B4
:10121000C00602D52046FFF714F96E4609E016F81D
:10122000010B3E280FD0D4E901219047206A401CD1
:101230002062B8F10108F2D22046FFF718F909B090
:101240000320BDE8F08F206A2844206203E0D4E93F
:101250000121302090476D1EEBD3F8E74A2F0000A4
:1012600002FCFFFF10B5436913B1AFF3008001E04A
:10127000FFF720F9012010BD127800F124010A7057
:1012800000224A700122EDE711684FF0FF32E9E7D2
:1012900010B5436913B1AFF3008001E0FFF7A2F985
:1012A000012010BD128800F1240182840022C28432
:1012B0000122EDE711684FF0FF32E9E770B51646FD
:1012C0000C46054600F040F8036893F80101012838
:1012D00006D0FF2C0FD8185D68B101202C7070BDAE
:1012E000D3F807013246214603F207130344284688
:1012F000BDE8704018474FF0FF3070BD754600F0F4
:10130000EBF8AE4605006946534620F007008546D7
:1013100018B020B5FFF70AF8BDE820404FF00006EE
:101320004FF000074FF000084FF0000B21F00701CD
:10133000AC46ACE8C009ACE8C009ACE8C009ACE810
:10134000C0098D467047000010B500F005F8001D7B
:1013500010BD00BFE12B000000487047EC460020A4
:101360002DE9F0411F46044603260168072A01F4CF
:10137000006004DB08B116A505E016A503E008B17E
:1013800015A500E015A521F010002060A069C01E81
:10139000A0610FB1401EA0612046FFF752F84FB187
:1013A000D4E9012138469047206A401C2062C01CC5
:1013B000206206E0206AFAE7D4E9012115F8010B62
:1013C0009047761EF8D22046FFF751F8BDE8F0812D
:1013D0004E414E006E616E00494E4600696E6600D9
:1013E0002DE9F047814616468AB0354878440DC845
:1013F0008DE80D0032487844801C03AC0DC884E8A9
:101400000D0041F69B300844372190FBF1F290FB30
:10141000F1F5A5F1800501FB12041B3C02D56442E5
:10142000012000E00020DFF898A080460027FA4461
:10143000AAF1BE0A0EE0E0070AD03246684607EB82
:10144000470101230AEB810100F022FB8DE8070030
:1014500064107F1C002CEED1194F7F44AE3F19E081
:10146000E80715D007EB04100DF1180A90E80E00FC
:101470008AE80E00C068F04201D1981908903246FF
:10148000012306A903A800F003FB03AB83E80700D0
:101490006D10641C002DE3D14FF001033246694604
:1014A000B8F1000F03A802D000F0DDFA01E000F06F
:1014B000EFFAC9E90001C9F808200AB0BDE8F087D1
:1014C0005C2C000010B50446AFF300802046BDE858
:1014D0001040FEF7CABE000000487047CC4600200E
:1014E0004FF0013C50F8042B51F8043B9A4221D1B3
:1014F000A2EB0C03934313EACC1317D150F8042B3F
:1015000051F8043B9A4215D1A2EB0C03934313EA22
:10151000CC130BD150F8042B51F8043B9A4209D15B
:10152000A2EB0C03934313EACC13DBD04FF0000083
:10153000704700BFD01A01BAB1FA81F101F0180169
:1015400022FA01F0CB40C1F12001DBB2C0B2C01AD7
:101550002CFA01F3D11A914311EAC311E6D1704775
:1015600001491820ABBEFEE72600020070475FEA83
:10157000400C08BF91F0000F4FEA8C234FEAC122C4
:1015800043EA51514FEA1C5018BF00F5F0404FEAB2
:10159000300018BF41F000415FEA6C5C00F0298028
:1015A000BCF1FF3F08BF40F080407047130C06BFFE
:1015B00012044FF0100C4FF0000C130E04BF120277
:1015C0000CF1080C130F04BF12010CF1040C930F63
:1015D00004BF92000CF1020CD30F04BF52000CF1B7
:1015E000010C11464FF00002A0F11F00A0EB0C000F
:1015F000704711F0004F08BF704731F000413FF4D1
:10160000D5AF0B0C06BF09044FF0100C4FF0000CC7
:101610000B0E04BF09020CF1080C0B0F04BF0901EB
:101620000CF1040C8B0F04BF89000CF1020CCB0FE2
:1016300004BF49000CF1010CCCF12003A0EB0C001D
:1016400022FA03F302FA0CF241EA030100F101006D
:10165000704720F07F4C80EA030023F07F47ACEB1B
:10166000070303F57C5300F0004003F1FF032DE96D
:1016700080494FEA154B09B44FEA144325EA0B4E53
:1016800024EA03480FF2042606EB132749083E78A4
:101690005FEA320203FB0667C7F5000707FB06F6A1
:1016A0004FEA54374FEAD64606F1020607FB066CAE
:1016B000CCF1005C4FEA1C472CEA074C07FB06F410
:1016C0000CFB06F504EB15464FEA961634BF0020D6
:1016D0004FF000404FEAD13706FB07FC4FEA1C4CA5
:1016E0000CFB0BF7D21B03FB0CF761EB07010CFBA8
:1016F0000EF7B0EB074072EB17420CFB08F734BF54
:10170000A2EB0742B2EB074261EB17414FEA0C44F0
:101710004FEA910706FB07FC4FEA1C4C0CFB0BF74A
:10172000B0EBC74072EB573203FB0CF734BFA2EBB0
:10173000C742B2EBC74261EB57310CFB0EF7B0EB7F
:10174000C70072EB57720CFB08F734BFA2EBC7025D
:10175000B2EBC70261EB5771039F4FEA816141EA27
:10176000921104EBCC044FEAD1374FEA826206FBB8
:1017700007FC42EA90124FEA80604FEA1C4C0CFBD7
:101780000BF7D21B03FB0CF761EB07010CFB0EF709
:10179000B0EB074072EB17420CFB08F734BFA2EB2B
:1017A0000742B2EB074261EB17414FEA8C554FEA13
:1017B000910704EB9C2406FB07FC4FEA1C4C0CFB36
:1017C0000BF7B0EBC74072EB573203FB0CF734BF9B
:1017D000A2EBC742B2EBC74261EB57310CFB0EF7ED
:1017E000B0EBC70072EB57720CFB08F734BFA2EBEB
:1017F000C702B2EBC70261EB577115EB4C254FEAFC
:10180000816141EA92114FEA82624FEAD13742EA9E
:10181000901206FB07FC44F100044FEA80604FEA97
:101820001C4C0CFB0BF7D21B03FB0CF761EB070105
:101830000CFB0EF7B0EB074072EB17420CFB08F7FE
:1018400034BFA2EB0742B2EB074261EB174115EB45
:101850001C154FEA813141EA92414FEA823242EA55
:1018600090424FEA80304FEA0C7644F1000448EA97
:1018700003434EEA0B484FF0000EB2EB080C71EB3D
:10188000030724BF624639464EEB0E0E4FF0000BA5
:101890000018524149414BEB0B0BB2EB080C71EBBA
:1018A00003077BF1000B24BF624639464EEB0E0E58
:1018B0004FF0000B0018524149414BEB0B0BB2EBC0
:1018C000080C71EB03077BF1000B24BF624639461D
:1018D0004EEB0E0E51EA020718BF46F0010616EB5A
:1018E0000E7655F1000254F1000103D5BDE88901DF
:1018F000BDE80088BDE88901BDE80048B61952413D
:1019000041EB0101A3F10103704780807F7E7D7C64
:101910007B7A7978777676757473727171706F6E81
:101920006E6D6C6C6B6A6A6968686766666564642C
:10193000636362616160605F5F5E5E5D5D5C5C5BB6
:101940005B5A5A5959585857575656555555545425
:10195000535352525251515050504F4F4F4E4E4D83
:101960004D4D4C4C4C4B4B4B4A4A4A4949494848CF
:10197000484747474746464645454544444444430F
:1019800043434342424242414141002B9C4630D4B2
:1019900077002BD01CB54FEA370703B44FF0100087
:1019A0004FF01001BAF1000F06D0BCF1000FDCBF00
:1019B00040F0080040F008014FF000000FBCBDE807
:1019C00010400BF1010BBBF1010F08BF5FEA1707D5
:1019D00022BF12F1010211F101014FF0004143F168
:1019E000000300F0004043EA00007047F9D35708B5
:1019F000D0E746EA064613F1400F4FEA16461FDDD0
:101A000013F1200FDFBF16430A46002120335B424B
:101A1000BED0C3F1200746EA064602FA07F74FEAAE
:101A2000164646EA0706C3F1200722FA03F201FA36
:101A300007F721FA03F14FF0000342EA0702A7E794
:101A400046EA020646EA06464FEA164646EA010616
:101A5000BCBF46EA0646360C4FF000034FF00002CA
:101A60004FF0000194E72DE9804C9A46934670B4FC
:101A700091E8380007C831EA400C48BF34EA430C0B
:101A800003D5FFF7E6FDFFF780FFF0BCBDE8008C53
:101A90002DE9804C9A46934670B491E8380007C807
:101AA00010F0804F08BF13F0804F03D100F005F80D
:101AB000FFF76BFFF0BCBDE8008C20F07F4780EAA9
:101AC000030023F07F4C07EB0C03A3F57C5300F0DD
:101AD0000040A3F1FE0392F0000F00F0B38095F0F8
:101AE000000F00F077802DE901494FEA11404FEADD
:101AF000144621EA004800FB06FC24EA064708FBDE
:101B000006F607FB08F800FB07F718EB06484CEB56
:101B1000164C4FEA124B18EB07484FEA15464CEBB0
:101B2000174022EA0B4E0BFB06FC25EA06470EFB8C
:101B300006F607FB0EFE0BFB07F71EEB064E4CEB03
:101B4000164C4FF000061EEB074E4CEB174B18EBF4
:101B50000B0840F1000018EB0E0B58EB000840F1A9
:101B600000008F1A4FF000013CBFC943661B14BF31
:101B7000B5EB040C00213CBFC943F61B4FEA1744E8
:101B80004EEA8E0E27EA04454FEA1C4704FB076223
:101B90002CEA074C05FB07F70CFB05F604FB0CFCD5
:101BA00016EB074642EB174216EB0C4642EB1C4283
:101BB0001BEB060658EB0202414146EA9E0601D5A0
:101BC000BDE80189B619524141EB0101A3F10103BE
:101BD000BDE801894FEA14454FEA114724EA05465A
:101BE00021EA074C05FB07F406FB07F70CFB06F19F
:101BF00005FB0CFC11EB074144EB17444FEA12477D
:101C000011EB0C4144EB1C4422EA074C05FB07F2A4
:101C100006FB07F70CFB06F605FB0CFC16EB07466C
:101C200042EB174216EB0C4642EB1C456A1854F186
:101C3000000148BF7047B619524141EB0101A3F1C1
:101C40000103704795F0000F37D04FEA11424FEA79
:101C5000144721EA024624EA074C02FB07F106FB7F
:101C600007F70CFB06F402FB0CFC14EB074441EBFA
:101C700017414FEA154714EB0C4441EB1C4125EA90
:101C8000074C02FB07F506FB07F70CFB06F602FB09
:101C90000CFC16EB074645EB174516EB0C4645EBDF
:101CA0001C42121951F1000148BF7047B619524148
:101CB00041EB0101A3F1010370474FEA14454FEADC
:101CC000114724EA054621EA074C05FB07F106FB0C
:101CD00007F70CFB06F24FF0000605FB0CFC12EBBD
:101CE000074241EB174112EB0C4251EB1C4148BF3C
:101CF0007047921841EB0101A3F10103704700BF47
:101D0000FEE7704708B50020009069460948006862
:101D100001F08EFC00BF009838B14FF080500649AA
:101D20000860BFF34F8FBFF36F8F00BF102000F02C
:101D300005F808BD0C00002004ED00E00149086032
:101D40007047000014040140002123498279002AD1
:101D50003AD00A46126803689A430B461A600A1D75
:101D6000126803689A430B1D1A60027911440A68CD
:101D700003681A430A60184A0832126803689A43D3
:101D8000154B08331A601A1D126803689A43124BE8
:101D90000C331A604279102A0ED11A1F1268036898
:101DA0001A430D4B08331A601A1D126803681A4350
:101DB000094B0C331A600DE00749427911440A6857
:101DC00003681A430A6005E0027911440A6803684F
:101DD0009A430A60704700000004014030B50022B9
:101DE0008B071C0F0F2303FA04F20B4B8C1053F8D4
:101DF00024309343084C8D1044F8253023468C1032
:101E000053F824308C07240F00FA04F42343024CC7
:101E10008D1044F8253030BD080001402DE9F04117
:101E2000024600250026002000230024002791F808
:101E300003C00CF00F0591F803C00CF0100CBCF1BE
:101E4000000F03D091F802C04CEA050591F800C0DC
:101E5000BCF1000F31D0146800202BE04FF0010CD2
:101E60000CFA00F3B1F800C00CEA03069E4220D140
:101E700083004FF00F0C0CFA03F7BC4305FA03FC88
:101E80004CEA040491F803C0BCF1280F06D14FF0CE
:101E9000010C0CFA00FCC2F814C00AE091F803C06F
:101EA000BCF1480F05D14FF0010C0CFA00FCC2F850
:101EB00010C0401C0828D1D31460B1F800C0BCF198
:101EC000FF0F34DD546800202EE000F1080C4FF0C5
:101ED000010808FA0CF3B1F800C00CEA03069E42B0
:101EE00021D183004FF00F0C0CFA03F7BC4305FA25
:101EF00003FC4CEA040491F803C0BCF1280F05D19F
:101F000000F1080C08FA0CF8C2F8148091F803C02C
:101F1000BCF1480F07D100F1080C4FF0010808FA96
:101F20000CF8C2F81080401C0828CED35460BDE8DD
:101F3000F081416170470161704700BFFEE700BF5B
:101F4000FEE7704770B5002100230F22C47804B368
:101F5000154C246804F4E064C4F5E064210AC1F17E
:101F60000403CA40447804FA03F1847814402143FE
:101F700009010E4C0678A155047804F01F050124D0
:101F8000AC4005786D11AD0005F1E025C5F80041C4
:101F900009E0047804F01F050124AC40044D0678E4
:101FA000761145F8264070BD0CED00E000E400E03D
:101FB00080E100E002490143024A116070470000DD
:101FC0000000FA050CED00E029B1064AD26902438F
:101FD000044BDA6104E0034AD2698243014BDA61BF
:101FE000704700000010024029B1064A926902437E
:101FF000044B9A6104E0034A92698243014B9A615F
:10200000704700000010024030B50021002200247B
:1020100000232D4D6D6805F00C0121B1042905D078
:10202000082923D105E0294D056022E0274D0560F0
:102030001FE0254D6D6805F47012234D6D6805F4A1
:102040008034022505EB92421CB9214D55430560B1
:102050000BE01D4D6D6805F400351DB11C4D554359
:10206000056002E0194D5543056002E0174D05601B
:1020700000BF00BF144D6D6805F0F0010909154D52
:102080006B5C0568DD4045600F4D6D6805F4E061EF
:10209000090A104D6B5C4568DD4085600A4D6D682E
:1020A00005F46051C90A0B4D6B5C4568DD40C560A5
:1020B000054D6D6805F44041890B074D6B5CC568A3
:1020C000B5FBF3F5056130BD0010024000127A0047
:1020D00000093D00160000202600002010B500F089
:1020E00001F810BD0CB50020019000903348006845
:1020F00040F480303149086000BF3048006800F487
:10210000003000900198401C0190009818B9019887
:10211000B0F5A06FF1D12948006800F4003010B18B
:102120000120009001E0002000900098012843D198
:102130002348006840F01000214908600846006804
:1021400020F0030008600846006840F002000860C4
:102150001A4840681949486008464068486008467F
:10216000406840F4806048600846406820F47C1075
:1021700048600846406840F4E81048600846006837
:1021800040F08070086000BF0C48006800F00070EC
:102190000028F9D00948406820F00300074948604A
:1021A0000846406840F00200486000BF03484068AD
:1021B00000F00C000828F9D10CBD0000001002400E
:1021C0000020024010B500BFBF2080F31188BFF38C
:1021D0004F8FBFF36F8F00BF01F09AFC18B14FF023
:1021E00080500449086000BF002080F3118800BFC0
:1021F00010BD000004ED00E010B51348006840F089
:1022000001001149086008464068104908400E491D
:102210004860084600680E4908400B4908600846B7
:10222000006820F4802008600846406820F4FE0022
:1022300048604FF41F008860FFF750FF4FF00060C8
:102240000449086010BD0000001002400000FFF8C3
:10225000FFFFF6FE08ED00E03EB5002002900D48BD
:1022600000F0C8F8C4B202A8002103232246CDE939
:1022700000100948006801F0F9FA00BF029838B16F
:102280004FF0805005490860BFF34F8FBFF36F8F49
:1022900000BF3EBD004400400400002004ED00E00B
:1022A00021B1828942F40052828104E082894DF694
:1022B000FF731A408281704702460020B1F5007F0B
:1022C00000D100BF13880B400BB1012000E00020BB
:1022D0007047F0B50346002400260025002040F694
:1022E0006A17B94200D100BF1846C1F3421401F089
:1022F0001F06012707FA06F5012C01D10C3004E076
:10230000022C01D1103000E014301AB107682F43BD
:10231000076002E00768AF430760F0BD2DE9F047B2
:1023200086B005460E460024A24600BFA1460027FF
:10233000B08900B100BF2F462C8A4CF6FF700440D4
:10234000F08804432C82AC894EF6F3100440B08828
:1023500031890843718908430443AC81AC8A4FF644
:10236000FF400440B0890443AC8201A8FFF74CFE53
:102370001F48874202D1DDF810A001E0DDF80CA073
:10238000A88900F4004040B10AEBCA0000EB0A1033
:1023900031684900B0FBF1F807E00AEBCA0000EB36
:1023A0000A1031688900B0FBF1F86420B8FBF0F046
:1023B00004012009642101FB1089A88900F4004070
:1023C00040B1322000EBC900B0FBF1F000F0070093
:1023D000044308E0322000EB09106421B0FBF1F067
:1023E00000F00F0004432C8106B0BDE8F087000028
:1023F0000038014001468888C0F308007047C1F3E7
:1024000008028280704700BFFEE7490050EAC12001
:1024100018BF04204A0D18BF40F0010040F2FF72BF
:10242000B2EB515F08BF40F00200012808BF052051
:10243000704730380A2801D20120704700207047C9
:1024400010B5044601A000F013F810BD706F73744E
:1024500020736C6565700A0010B5044601A000F099
:1024600007F810BD70726520736C6565700A000016
:102470000FB410B5C2B045A8019002A8019A4499C2
:10248000FDF766FF0020019002A8FDF773FF84B2FC
:10249000214602A800F0E2FD42B010BC5DF814FB3A
:1024A000012101200B4A12680AB1002011E00A4AFA
:1024B00012680AB100200CE0084A12680AB1002034
:1024C00007E0074A1368074A1268521E934200D178
:1024D0000220704790020020500000204C00002095
:1024E000B80200203C0000201FB501214120FFF769
:1024F0007BFD1020ADF80C0048208DF80F0003A9DB
:102500001248FFF78BFC04210846FFF767FC002008
:102510008DF808000C208DF8090010200190012092
:102520008DF80A0001A8FFF70FFC0A208DF80000C3
:1025300001208DF8010000208DF8020001208DF8A7
:1025400003006846FFF7FEFC1FBD000000180140B5
:1025500008B501214820FFF747FD2020ADF8000015
:1025600010208DF8030003208DF802006946094809
:10257000FFF754FC20210748FFF7DDFC2020ADF8D1
:10258000000069460448FFF749FC20210248FFF794
:10259000D0FC08BD000C0140001801401CB54FF4F0
:1025A0004070FFF707FDFFF7D3FF00F0D1FCFFF706
:1025B0009BFF1D4805210023C822CDE900101BA167
:1025C0001C4801F023F9012802D11BA0FFF750FF9E
:1025D0000021032000F0A4FF1C49086008460068A1
:1025E00010B11BA0FFF744FF1F4807210023C8229A
:1025F000CDE900101DA11F4801F008F91E48032174
:102600000023C822CDE900101CA11E4801F0FEF8ED
:10261000012802D11CA0FFF72BFF20A0FFF728FF05
:1026200000F0EEFE00BFFEE7000000207461736B57
:1026300031000000152E00087461736B3120637245
:1026400065617420737563210A0000000C0000208E
:1026500073656D6170686F72652063726561742067
:10266000737563210A000000080000207461736B19
:1026700033000000312F0008040000207461736BE8
:1026800032000000952E00087461736B3220637273
:1026900065617420737563210A00000072756E0A0B
:1026A000000000002DE9F04105460E462648076867
:1026B00026480068001D00F0E9FC50B92348006876
:1026C00090F82C1001208840214909688143204856
:1026D0000160681CD8B9D6B11E4948681B49096811
:1026E00088601A4982680968CA6018490968091D22
:1026F0008268516015490968091D8160154A1349AE
:1027000009684A6111460968491C11601AE07C1980
:102710000E4800684460BC4207D20C480168091D9D
:102720000D48006800F0FAFC0CE008480168091D3B
:102730000A48006800F0F2FC09480068844201D2AF
:1027400007480460BDE8F081400000202C00002014
:1027500044000020B8020020340000203000002097
:102760005C00002010B5044600F0F2FC2F48006821
:10277000401C2E4908602E48006840B92C4804606F
:102780000846006801280DD100F0A6F90AE02948A2
:10279000006838B926480068C06AE16A884201D8F2
:1027A0002348046024480068401C2349086094F8CA
:1027B0002C10012088402149096808431F490860FE
:1027C000E16A01EB81011E4A02EB81014868A060C9
:1027D0008268E260211D826851608160E16A01EBDC
:1027E0008101174A02EB81026261E16A01EB81011A
:1027F000134A52F82110491CE26A02EB8202104B84
:1028000043F8221000F0B6FC0A48006868B1084896
:102810000068C06AE16A884207D24FF080500949D7
:102820000860BFF34F8FBFF36F8F10BD3C000020D7
:102830002C00002048000020580000204400002008
:10284000A001002004ED00E010B516E000F080FCCF
:102850000C48C068C468201D00F018FC0A480068D5
:10286000401E0949086009480068401E0749086081
:1028700000F080FC204600F040F804480068002882
:10288000E4D110BDA40200203C000020380000204C
:102890002DE9F04104460F4615464FF00008A66B9F
:1028A000206C28B37DB93946226C6068FDF781FD44
:1028B000216C606808446060D4E90101884217D344
:1028C0002068606014E03946226CE068FDF771FD15
:1028D000216CE068411AE1602168E068884203D217
:1028E000216CA068411AE160022D01D106B1761E6B
:1028F000701CA0634046BDE8F08110B50446206B13
:1029000000F048FC204600F045FC10BD00210122EB
:102910000C4B1B68012B00D901210B4A1268D26AAB
:102920000AB100200DE0094A1268012A01D90020ED
:1029300007E009B1002004E0054A1268054B1B6856
:10294000D01A7047440000202C000020A001002075
:102950005C0000204000002030B54FF48843174849
:1029600000F007042CB1C01D20F00700134C041B1D
:102970001B1B0246124C22600024114D6C60D018C3
:10298000083820F007000F4C206000240D4D2D6802
:102990006C600C4D2D682C601146441A4C60094C3B
:1029A00024680C60084D4C682C60084D4C682C6005
:1029B0004FF00044064D2C6030BD0000CC020020DA
:1029C0007C000020840000208C0000208800002073
:1029D0009800002000BFFFF737FF1048006801286B
:1029E00007D94FF080500E490860BFF34F8FBFF3F7
:1029F0006F8F00F069FBFFF789FF0446022C0BD3B1
:102A000000F03CFDFFF782FF0446022C02D3204673
:102A100000F00EFC01F0CAF9DDE70000A001002083
:102A200004ED00E02DE9F04106460D4617469846B4
:102A3000069C0DB9246000E02760E663256401214F
:102A4000204600F0A5FD0020A064BDE8F0812DE93E
:102A5000FF5F80460E469146DDE90E7A109CA9F193
:102A60000100216B01EB800B2BF0070B86B10025D9
:102A700007E0715D04F134004155705D00B902E07A
:102A80006D1C102DF5D300BF00214320015502E03D
:102A9000002084F834000A2F00D30927E762201DA4
:102AA00000F039FB04F1180000F035FB2461C7F198
:102AB0000A00A06164620020606484F84800414616
:102AC0005846039A00F094F92060BAF1000F01D043
:102AD000CAF80040BDE8FF9F10B5002407E004EBF2
:102AE00084010F4A02EB810000F008FB641C0A2CF1
:102AF000F5D30C4800F002FB0B4800F0FFFA0B483E
:102B000000F0FCFA0A4800F0F9FA0A4800F0F6FA78
:102B100004480949086004480849086010BD0000DD
:102B2000A0010020680200207C020020900200200A
:102B3000A4020020B8020020300000203400002051
:102B400010B50146164800E0006803688B42FBD3CD
:102B50000246436813448B4204D143684C682344C3
:102B6000436001460A464B6813440468A34211D1EE
:102B70000C4C03682468A34208D04B68046864685E
:102B800023444B6003681B680B6005E0054B1B6822
:102B90000B6001E003680B60884200D0016010BD4B
:102BA0007C0000208400002070B5054600F0D0FABB
:102BB000A86B08B9012400E0002400F0DBFA2046ED
:102BC00070BDF1B50098846C0026A06BE16B884263
:102BD0001BD294F94550002269462046FFF758FE63
:102BE0000646681C60B9606A08B9012000E0002050
:102BF00050B904F1240001F053F828B1012603E094
:102C0000681C40B284F8450000BF3046F8BD0000A3
:102C100009480068006808B9012000E0002020B1E0
:102C20004FF0FF300549086005E003480068C068C0
:102C30000068024908607047300000205C000020F6
:102C400000BFBF2080F31188BFF34F8FBFF36F8F9A
:102C500000BF00BFFEE770B5044600F079FA94F9B2
:102C6000455019E0A06C30B12046FFF7AAFF88B1AB
:102C700000F0B0FB0EE0606A08B9012000E000201F
:102C800038B904F1240001F00BF818B100F0A2FBF0
:102C900000E003E0681E45B2002DE3DC00BFFF202A
:102CA00084F8450000F066FA00F052FA94F94450B6
:102CB00010E0206908B9012000E0002048B904F1C3
:102CC000100000F0EDFF08B100F084FB681E45B273
:102CD00000E001E0002DECDC00BFFF2084F84400A0
:102CE00000F048FA70BD00002DE9F04104464FF0B5
:102CF000000800F0C3FB3848006808B9FFF72CFE55
:102D000036480068204000285BD1B4B104F10800C7
:102D1000A04212D9083404F0070078B104F007008B
:102D2000C0F108002044A04205D904F00700C0F11A
:102D30000800044402E0002400E00024002C40D0FD
:102D40002748006884423CD8264E3046056801E09A
:102D50002E462D686868A04202D228680028F7D164
:102D60001D48006885422CD0306800F108082868AA
:102D700030606868001B102807D92F196868001B8D
:102D800078606C603846FFF7DBFE154968680968B3
:102D9000081A134908600846006813490968884200
:102DA00003D20F480068104908600C496868096838
:102DB00008436860002028600C480068401C0B49EC
:102DC000086000F0F3FFB8F1000F01D100F088F9BE
:102DD0004046BDE8F08100008400002098000020FB
:102DE000880000207C0000208C0000209000002043
:102DF000001F4FF080730360001F21F00103036088
:102E0000001F034B03601438026020387047000035
:102E1000412C000800BF1548006840B914A0FFF716
:102E200027FB4FF0FF311748006800F047FC0F48C0
:102E30000068401C0D4908600A2802D30020086081
:102E40000CE01048006800F035F938B100210D4859
:102E5000006800F033FC0120044908600AA0FFF775
:102E600007FB642000F090FAD5E700001000002076
:102E70006B6579207461736B20626C6F636B210AE0
:102E8000000000000C0000206B6579207461736BFA
:102E90000A0000001CB500BF1B48008860B91BA0D9
:102EA000FFF7E6FA4FF0FF3001ABFF220021009060
:102EB000084600F0D7FD11E0322001ABFF220021CF
:102EC0000090084600F0CEFD012807D000200E49F2
:102ED0000880124912A0FFF7CBFADDE70198C1B2D2
:102EE000094802880088401C074B18800B48815411
:102EF00000211A461288815418460088FF2802DDF6
:102F0000FF2019460880C7E714000020727820745B
:102F100061736B20626C6F636B210A009C00002060
:102F200072782074696D656F75743A25730A0000B4
:102F300000BF04A0FFF79CFA4FF47A7000F024FA67
:102F4000F7E700007461736B332072756E210A001D
:102F500000B587B0012144F20400FFF745F80121D4
:102F60004804FFF731F84FF40070ADF81800032063
:102F70008DF81A0018208DF81B0006A93448FEF7BA
:102F80004DFF4FF48060ADF8180004208DF81B0051
:102F900006A92F48FEF742FF0420ADF818000320D1
:102FA0008DF81A0018208DF81B0006A92848FEF796
:102FB00035FF0820ADF8180004208DF81B0006A985
:102FC0002348FEF72BFF4FF4E13002900020ADF8CC
:102FD0000C00ADF80E00ADF81000ADF8140008209C
:102FE000ADF8120002A91B48FFF798F90121194812
:102FF000FFF756F94FF4E13002900020ADF80C00D5
:10300000ADF80E00ADF81000ADF814000C20ADF8CE
:10301000120002A91048FFF781F9012240F2255160
:103020000D48FFF756F901210B48FFF739F9262023
:103030008DF8040003208DF8050000208DF80600AF
:1030400001208DF8070001A8FEF77CFF07B000BD46
:1030500000080140003801400044004070B50446BB
:103060000D460BE014F8011B0748FFF7C8F900BF35
:1030700080210548FFF720F90128F9D1281EA5F184
:1030800001018DB2EED170BD0038014001460A69E0
:10309000D1E901309860D1E9010358605068884255
:1030A00001D188685060002008611068401E1060DF
:1030B0001068704770B5044600F04AF8A56B00F040
:1030C00059F8284670BD000010B502A0FFF7D0F9EE
:1030D00010BD00006964656C20686F6F6B210A0089
:1030E00010B502A0FFF7C4F910BD00006D616C6C53
:1030F0006F63206661696C65640A000000F1080175
:1031000041604FF0FF31816000F10801C160016151
:1031100000210160704700210161704710B502462F
:103120000B685C1C0CB9106907E002F1080000E0B4
:103130004068446824689C42FAD944684C604C68F2
:10314000A160886041600A611468641C146010BD4D
:1031500000BFBF2080F31188BFF34F8FBFF36F8F85
:1031600000BF03480068401C014908607047000028
:103170006C00002006480068401E054908600846AB
:10318000006820B9002080F3118800BF00BF70479D
:103190006C00002070B506463546FEB1083D2C4651
:1031A0000F49606809680840C0B12068B0B90C498F
:1031B000606809688843606000F060F909496068E8
:1031C00009680844074908602046FFF7B9FC06482B
:1031D0000068401C0449086000F0E8FD70BD000074
:1031E0009800002088000020940000200C480D4921
:1031F0000860084600686FF07F41B1FBF0F00A49B3
:1032000008602D200949086000204FF0E021086186
:1032100088610348401E486107200861704700002C
:103220004019010070000020740000207800002088
:103230002DE9F041044651480068844201D94F48C5
:1032400004684FF0E020006920F001004FF0E02119
:10325000086108468169601E494A126802FB001530
:1032600048480068854202D9464800682D1A72B65F
:10327000BFF34F8FBFF36F8FFFF712F980B94FF095
:10328000E02080694FF0E02148610846006940F085
:10329000010008613A480068401E486162B66BE070
:1032A0004FF0E020456100204FF0E02188610846A2
:1032B000006940F001000861A0464046FFF7CCF8E5
:1032C000B8F1000F04D0BFF34F8F30BFBFF36F8F43
:1032D0002046FFF7B5F862B6BFF34F8FBFF36F8F8D
:1032E00072B6BFF34F8FBFF36F8F06204FF0E02110
:1032F00008610846006900F48030B8B120490968C7
:10330000491E4FF0E0229269AA1A881A1D490968DD
:10331000884203D31A490968884202D918490968C2
:10332000481E4FF0E0214861661E12E01448006814
:1033300060434FF0E0218969471A11480068B7FBE4
:10334000F0F6701C0E4909684843C01B4FF0E0219D
:10335000486100204FF0E02188610846006940F094
:1033600001000861304600F081F805480068401E01
:103370004FF0E021486162B6BDE8F08174000020A2
:10338000700000207800002070B50446002544B18C
:1033900000F074F800212046FFF784F900F006FDE4
:1033A00005463DB94FF0805003490860BFF34F8F89
:1033B000BFF36F8F70BD000004ED00E003490968A2
:1033C0000160034909684160704700005400002013
:1033D0004000002001200149086070475000002093
:1033E00070B505460C460548016818312846FFF7B8
:1033F00095FE01212046FFF755F970BD2C000020F5
:103400001CB5124800210B468022CDE9001010A106
:10341000114800F0FBF90446012C14D100BFBF2075
:1034200080F31188BFF34F8FBFF36F8F00BF4FF052
:10343000FF300A4908600120094908600020094955
:10344000086000F053F8084800681CBD60000020C8
:1034500049444C4500000000D52900085C000020CC
:103460004800002040000020640000200249096854
:103470000144014A11607047400000200248006882
:10348000401C01490860704768000020124800682D
:1034900018B10120114908601DE000200F490860A3
:1034A0000F480068B0FA80F0C0F11F0101EB810203
:1034B0000C4B03EB820042685268426000F1080244
:1034C0004368934202D14268526842604268D268BF
:1034D000054B1A6000BF70476800002050000020B4
:1034E00044000020A00100202C00002010B50A4854
:1034F000006840F47F00084908600846006840F012
:103500007F400860FFF772FE002004490860FCF766
:10351000C5FE002010BD000020ED00E06C00002082
:1035200070B504460E4600254CB1A64207D80222CB
:103530000021204600F005F8054605B1AE63284697
:1035400070BD2DE9F84304460E4617460025DCB150
:10355000681EB0FBF4F0B04216D304FB06F010F185
:103560004D0F11D804FB06F909F14C00FFF7BCFB25
:1035700005464DB1A84608F14C083B464246314647
:1035800020460095FFF74EFA2846BDE8F883000074
:103590002DE9F04105460E4601272C46002C41D06E
:1035A000E06B00283ED0B91EE06BB1FBF0F0216C5F
:1035B000884237D3FFF7CCFDD4E90F12206801FB16
:1035C0000200A0600020A06320686060E06B401EE5
:1035D000226C216800FB0211E160FF2084F84400A6
:1035E00084F845009EB9206908B9012000E0002058
:1035F000A8B904F1100000F053FB80B14FF08050E7
:103600000A490860BFF34F8FBFF36F8F07E004F1E3
:103610001000FFF773FD04F12400FFF76FFDFFF7C3
:10362000A9FD00E000273846BDE8F08104ED00E088
:103630002DE9F04706460D46344600BFBF21EFF3A3
:10364000118081F31188BFF34F8FBFF36F8F00BFDD
:103650008046D4F83890E06B484527D994F945A0C6
:1036600009F10100A0630AF10100C0B9A06C38B1F2
:103670002046FFF7A6FAB8B1B5B10120286013E0E3
:10368000606A08B9012000E0002068B904F1240054
:1036900000F006FB40B13DB10120286004E00AF1D2
:1036A000010040B284F84500012700E0002700BF78
:1036B00088F3118800BF3846BDE8F087F3B583B0C2
:1036C000054600272C4600BFFFF742FDA66BCEB192
:1036D000701EA063206908B9012000E0002060B9D5
:1036E00004F1100000F0DCFA38B14FF080502E49A0
:1036F0000860BFF34F8FBFF36F8FFFF73BFD0120D3
:1037000005B0F0BD049818B9FFF734FD0020F7E7C5
:103710001FB901A8FFF752FE0127FFF72BFDFFF7A6
:10372000ADFEFFF715FD94F94400401C10B90020D0
:1037300084F8440094F94500401C10B9002084F836
:103740004500FFF717FD04A901A800F02FF8F0B914
:103750002046FFF729FAA0B104F124000499FFF7ED
:103760003FFE2046FFF777FA00F020FB0028ABD1A0
:103770004FF080500C490860BFF34F8FBFF36F8F3D
:10378000A2E72046FFF767FA00F010FB9CE720460F
:10379000FFF761FA00F00AFB2046FFF705FA002860
:1037A00092D00020ACE7000004ED00E070B50646C2
:1037B0000C46FFF7CDFC134802687068131A2068A6
:1037C000401C08B9002519E00F4930680968884293
:1037D00006D07068904203D80125002020600DE0DB
:1037E0002068984207D92068C01A20603046FFF749
:1037F000E5FD002502E0002020600125FFF7BAFC6E
:10380000284670BD40000020540000202DE9FF4FE5
:1038100085B0804689461746DDE912ABB800FFF750
:1038200063FA064656B14C20FFF75EFA04460CB127
:10383000266304E03046FFF7ADFC00E000247CB1D5
:103840000020CDE900ABCDE902403A46494640466A
:10385000089BFFF7FCF82046FEF784FF012501E0F6
:103860004FF0FF35284609B0BDE8F08F2DE9F04F45
:1038700005460C46DDE909674FF00109294600BFFE
:103880004FF0BF0AEFF311808AF31188BFF34F8F17
:10389000BFF36F8F00BF804626B101F1440050F89E
:1038A0002400306001F1480010F804C04FF0020A13
:1038B00000F804A0052B29D2DFE803F027030D1739
:1038C0001C0001F1440050F82400104301F1440AA7
:1038D0004AF824001BE001F1440050F82400401C89
:1038E00001F1440A4AF8240011E001F1440040F8D3
:1038F00024200CE0BCF1020F04D001F1440040F898
:10390000242001E04FF0000901E000E000BF00BF0B
:10391000BCF1010F7ED14D48006800285FD1486995
:10392000D1E902ABCAF808B0D1E902BACAF804B0CA
:1039300001F1040AD0F804B0D34503D1D1F80CA0AA
:10394000C0F804A04FF0000BC1F814B0D0F800A0EC
:10395000AAF1010AC0F800A091F82CA0012000FAF9
:103960000AF0DFF8ECA0DAF800A040EA0A00DFF87D
:10397000E0A0CAF80000D1F82CA00AEB8A0ADFF810
:10398000D4B00BEB8A0ADAF804008860D0F808B0EB
:10399000C1F80CB001F1040AD0F808B0CBF804A0CB
:1039A000C0F808A0D1F82CA00AEB8A0ADFF8A4B06E
:1039B0000BEB8A0BC1F814B0D1F82CA00AEB8A0AE1
:1039C000DFF890B05BF82AA00AF1010AD1F82CB018
:1039D0000BEB8B0BDFF87CE04EF82BA01EE0DFF842
:1039E00078A0DAF80400C861D0F808B0C1F820B0B7
:1039F00001F1180AD0F808B0CBF804A0C0F808A06C
:103A0000DFF854B0C1F828B0DA46DAF800A00AF1BD
:103A1000010A00E013E0CBF800A000BFDFF83CA0F3
:103A2000C86ADAF800A0DAF82CA0504507D90FB11F
:103A3000012038600120DFF828A0CAF8000000BF8C
:103A400088F3118800BF4846BDE8F08F6800002069
:103A500044000020A0010020900200202C00002043
:103A6000500000202DE9F04704460F4690461D46C1
:103A7000DDF82090FFF76CFB234800684830005DBC
:103A800002281AD020490968443101EB84000168FA
:103A9000B943016001211C48006848300155B9F163
:103AA000000F0AD04846FEF7FDFD4FF08050174941
:103AB0000860BFF34F8FBFF36F8FFFF75BFBFFF71C
:103AC00047FB2DB110480068443050F824002860AE
:103AD0000D4800684830005D022801D0002609E04A
:103AE00009490968443101EB8400016821EA0801B1
:103AF0000160012600210448006848300155FFF7A5
:103B000039FB3046BDE8F0872C00002004ED00E0D2
:103B10002DE9F04100275748006800287ED156481B
:103B20000068451C544805608DB95448D0F80080A1
:103B300053480068514908605148C0F80080514816
:103B40000068401C4F490860FFF762F800BF4E480C
:103B50000068854276D300BF48480068006808B90D
:103B6000012000E0002020B14FF0FF3046490860FE
:103B700067E042480068C068C4686668B54202D21F
:103B8000414806605DE06069D4E902128A60D4E9C8
:103B900002214A60211D42688A4201D1E1684160E8
:103BA000002262610168491E0160A06A98B1A06AA2
:103BB000D4E907128A60D4E907214A6004F11801A8
:103BC00042688A4201D1216A41600022A2620168F2
:103BD000491E016000BF94F82C10012088402B4939
:103BE0000968084329490860E16A01EB8101284A14
:103BF00002EB81014868A0608268E260211D826852
:103C000051608160E16A01EB8101214A02EB81028E
:103C10006261E16A01EB81011D4A00E022E052F895
:103C20002110491CE26A02EB8202194B43F8221070
:103C30001849E06A0968C96A88428DD301278BE771
:103C400000E000BF13480068C06A00EB8000104924
:103C500051F82000012800D901270F48006800B161
:103C6000012704E00D480068401C0C4908603846F4
:103C7000BDE8F081680000204000002030000020F6
:103C800034000020540000205C000020440000208C
:103C9000A00100202C000020500000204C0000203B
:103CA00070B50646F068C468A06AD4E907128A6055
:103CB000D4E907214A6004F1180142688A4201D11F
:103CC000216A41600022A2620168491E01603148F8
:103CD000006800283FD16069D4E902128A60D4E903
:103CE00002214A60211D42688A4201D1E168416097
:103CF000002262610168491E016094F82C100120C5
:103D0000884025490968084323490860E16A01EBB6
:103D10008101224A02EB81014868A0608268E2606A
:103D2000211D826851608160E16A01EB81011B4ABB
:103D300002EB81026261E16A01EB8101174A52F8EC
:103D40002110491CE26A02EB8202144B43F8221054
:103D5000FEF75EFF10E012494868E0618268226267
:103D600004F118018268516081600D4AA262114617
:103D70000968491C116000BF0A49E06A0968C96AFC
:103D8000884204D9012501200749086000E0002588
:103D9000284670BD6800002044000020A0010020DB
:103DA000900200202C0000205000002070B500245C
:103DB0000026FFF7CDF94B480068401E49490860CE
:103DC0000846006800287DD147480068002879D05F
:103DD0005BE04648C068C468A06AD4E907128A60FC
:103DE000D4E907214A6004F1180142688A4201D1EE
:103DF000216A41600022A2620168491E0160606977
:103E0000D4E902128A60D4E902214A60211D426885
:103E10008A4201D1E1684160002262610168491E65
:103E2000016094F82C10012088403149096808434A
:103E30002F490860E16A01EB81012E4A02EB810102
:103E40004868A0608268E260211D826851608160DC
:103E5000E16A01EB8101274A02EB81026261E16ABA
:103E600001EB8101234A52F82110491CE26A02EB5E
:103E70008202204B43F822101F49E06A0968C96A90
:103E8000884202D301201D4908601848006808B91B
:103E9000012000E0002000289BD00CB1FEF7B8FE06
:103EA0001748056865B100BFFFF732FE10B1012069
:103EB000124908606D1E002DF6D1002010490860DF
:103EC0000E4800E009E0006838B1012630070D49CE
:103ED0000860BFF34F8FBFF36F8FFFF74BF930468A
:103EE00070BD0000680000203C000020900200200F
:103EF00044000020A00100202C00002050000020E1
:103F00004C00002004ED00E010B500290AD008782C
:103F1000002807D005487844FDF7E2FA002801D0D0
:103F2000002010BD0248784410BD00006E01000062
:103F30006601000010B500290AD00878002807D0D3
:103F400005487844FDF7CCFA002801D0002010BDC8
:103F50000248784410BD00005E01000056010000D8
:103F6000FCF7CBBEFDF700B8000000000000000029
:103F7000303132333435363738394142434445469F
:103F80004030580030313233343536373839616299
:103F9000636465664030780004000008000000009B
:103FA0000000000200010000103031323334353699
:103FB0003738396162636465667870003031323356
:103FC000343536373839414243444546585000006D
:103FD00002400000000000A00000000005400000BA
:103FE000000000C8000000000C4000000000409CE1
:103FF00000000000194000000020BCBE00000000CE
:1040000034400000BFC91B8E00000004B540000012
:10401000504BCFD06607E2CF010000006C4100009A
:104020003E8251AADFEEA73401000000D942000011
:10403000DCB5A0E23A301F97FFFFFFFFB445000058
:10404000FD25A0C8E9A3C14FFFFFFFFFFF3F000010
:104050000000008000000000FF3F00000000008022
:1040600000000000B0410008000000209C0000009B
:104070006C0100084C4200089C000020944C000099
:10408000880100081C00000043000000F8FFFFFF4B
:104090000C0000000E0000000F0000002E000000C9
:1040A0001001000043000000F8FFFFFF0040404007
:1040B00040404040404041414141414040404040FB
:1040C00040404040404040404040404040050202A7
:1040D0000202020202020202020202020220202066
:1040E00020202020202020020202020202029090C2
:1040F00090909090101010101010101010101010C0
:104100001010101010101010020202020202888813
:10411000888888880808080808080808080808081F
:104120000808080808080808020202024000000007
:10413000000000000000000000000000000000007F
:10414000000000000000000000000000000000006F
:10415000000000000000000000000000000000005F
:10416000000000000000000000000000000000004F
:10417000000000000000000000000000000000003F
:10418000000000000000000000000000000000002F
:10419000000000000000000000000000000000001F
:1041A000000000000000000000000000000000000F
:1041B00000000000000000000000000000000000FF
:1041C00000000000000000000000010203040102E2
:1041D00003040607080902040608000000000000A6
:1041E00000000000000000000000000000000000CF
:1041F00000000000000000000000000000000000BF
:1042000000000000000000000000000000000000AE
:10421000000000000900000000000000AAAAAAAAED
:10422000000000000000000000000000000000008E
:10423000000000000000000000000000000000007E
:0C42400000000000000000000000000072
:0400000508000311DB
:00000001FF
